{
  "contractName": "SBT",
  "abi": [
    {
      "inputs": [],
      "name": "registerCompany",
      "outputs": [
        {
          "internalType": "bool",
          "name": "",
          "type": "bool"
        }
      ],
      "stateMutability": "nonpayable",
      "type": "function"
    },
    {
      "inputs": [
        {
          "internalType": "address",
          "name": "company",
          "type": "address"
        },
        {
          "components": [
            {
              "internalType": "uint256",
              "name": "id",
              "type": "uint256"
            },
            {
              "internalType": "string",
              "name": "title",
              "type": "string"
            },
            {
              "internalType": "uint8",
              "name": "startMonth",
              "type": "uint8"
            },
            {
              "internalType": "uint16",
              "name": "startYear",
              "type": "uint16"
            },
            {
              "internalType": "uint8",
              "name": "endMonth",
              "type": "uint8"
            },
            {
              "internalType": "uint16",
              "name": "endYear",
              "type": "uint16"
            },
            {
              "internalType": "uint8",
              "name": "isSet",
              "type": "uint8"
            }
          ],
          "internalType": "struct SBT.JobSBT",
          "name": "jobSBT_",
          "type": "tuple"
        }
      ],
      "name": "requestSBT",
      "outputs": [
        {
          "internalType": "bool",
          "name": "",
          "type": "bool"
        }
      ],
      "stateMutability": "nonpayable",
      "type": "function"
    },
    {
      "inputs": [],
      "name": "getPendingSBTRequests",
      "outputs": [
        {
          "internalType": "address[]",
          "name": "",
          "type": "address[]"
        },
        {
          "components": [
            {
              "internalType": "uint256",
              "name": "id",
              "type": "uint256"
            },
            {
              "internalType": "string",
              "name": "title",
              "type": "string"
            },
            {
              "internalType": "uint8",
              "name": "startMonth",
              "type": "uint8"
            },
            {
              "internalType": "uint16",
              "name": "startYear",
              "type": "uint16"
            },
            {
              "internalType": "uint8",
              "name": "endMonth",
              "type": "uint8"
            },
            {
              "internalType": "uint16",
              "name": "endYear",
              "type": "uint16"
            },
            {
              "internalType": "uint8",
              "name": "isSet",
              "type": "uint8"
            }
          ],
          "internalType": "struct SBT.JobSBT[]",
          "name": "",
          "type": "tuple[]"
        }
      ],
      "stateMutability": "view",
      "type": "function",
      "constant": true
    },
    {
      "inputs": [
        {
          "internalType": "address",
          "name": "user",
          "type": "address"
        },
        {
          "internalType": "bool",
          "name": "response",
          "type": "bool"
        }
      ],
      "name": "respondToRequestSBT",
      "outputs": [
        {
          "internalType": "bool",
          "name": "",
          "type": "bool"
        }
      ],
      "stateMutability": "nonpayable",
      "type": "function"
    },
    {
      "inputs": [
        {
          "internalType": "address",
          "name": "company",
          "type": "address"
        },
        {
          "internalType": "address",
          "name": "issuedTo",
          "type": "address"
        },
        {
          "internalType": "uint256",
          "name": "id",
          "type": "uint256"
        }
      ],
      "name": "verifySBT",
      "outputs": [
        {
          "internalType": "bool",
          "name": "",
          "type": "bool"
        }
      ],
      "stateMutability": "view",
      "type": "function",
      "constant": true
    }
  ],
  "bytecode": "0x608060405234801561001057600080fd5b50612645806100206000396000f3fe608060405234801561001057600080fd5b50600436106100575760003560e01c806321828bed1461005c5780637cad11071461008c5780638185f7a8146100aa5780638992dd57146100da578063acab6f671461010a575b600080fd5b61007660048036038101906100719190611c25565b610129565b6040516100839190611c9c565b60405180910390f35b610094610620565b6040516100a19190611c9c565b60405180910390f35b6100c460048036038101906100bf9190611ce3565b6106ef565b6040516100d19190611c9c565b60405180910390f35b6100f460048036038101906100ef9190611d23565b610f3a565b6040516101019190611c9c565b60405180910390f35b610112611300565b604051610120929190612047565b60405180910390f35b60008073ffffffffffffffffffffffffffffffffffffffff168373ffffffffffffffffffffffffffffffffffffffff16141561019a576040517f08c379a000000000000000000000000000000000000000000000000000000000815260040161019190612101565b60405180910390fd5b6000600360008573ffffffffffffffffffffffffffffffffffffffff1673ffffffffffffffffffffffffffffffffffffffff16815260200190815260200160002054141561021d576040517f08c379a00000000000000000000000000000000000000000000000000000000081526004016102149061216d565b60405180910390fd5b6000600160008573ffffffffffffffffffffffffffffffffffffffff1673ffffffffffffffffffffffffffffffffffffffff16815260200190815260200160002060003373ffffffffffffffffffffffffffffffffffffffff1673ffffffffffffffffffffffffffffffffffffffff1681526020019081526020016000206040518060e0016040529081600082015481526020016001820180546102c0906121bc565b80601f01602080910402602001604051908101604052809291908181526020018280546102ec906121bc565b80156103395780601f1061030e57610100808354040283529160200191610339565b820191906000526020600020905b81548152906001019060200180831161031c57829003601f168201915b505050505081526020016002820160009054906101000a900460ff1660ff1660ff1681526020016002820160019054906101000a900461ffff1661ffff1661ffff1681526020016002820160039054906101000a900460ff1660ff1660ff1681526020016002820160049054906101000a900461ffff1661ffff1661ffff1681526020016002820160069054906101000a900460ff1660ff1660ff1681525050905060018160c0015160ff1614610425576040517f08c379a000000000000000000000000000000000000000000000000000000000815260040161041c90612260565b60405180910390fd5b82600160008673ffffffffffffffffffffffffffffffffffffffff1673ffffffffffffffffffffffffffffffffffffffff16815260200190815260200160002060003373ffffffffffffffffffffffffffffffffffffffff1673ffffffffffffffffffffffffffffffffffffffff1681526020019081526020016000206000820151816000015560208201518160010190805190602001906104c892919061172c565b5060408201518160020160006101000a81548160ff021916908360ff16021790555060608201518160020160016101000a81548161ffff021916908361ffff16021790555060808201518160020160036101000a81548160ff021916908360ff16021790555060a08201518160020160046101000a81548161ffff021916908361ffff16021790555060c08201518160020160066101000a81548160ff021916908360ff160217905550905050600260008573ffffffffffffffffffffffffffffffffffffffff1673ffffffffffffffffffffffffffffffffffffffff168152602001908152602001600020339080600181540180825580915050600190039060005260206000200160009091909190916101000a81548173ffffffffffffffffffffffffffffffffffffffff021916908373ffffffffffffffffffffffffffffffffffffffff160217905550600191505092915050565b600080600360003373ffffffffffffffffffffffffffffffffffffffff1673ffffffffffffffffffffffffffffffffffffffff16815260200190815260200160002054146106a3576040517f08c379a000000000000000000000000000000000000000000000000000000000815260040161069a906122cc565b60405180910390fd5b6001600360003373ffffffffffffffffffffffffffffffffffffffff1673ffffffffffffffffffffffffffffffffffffffff168152602001908152602001600020819055506001905090565b6000803390506000600360008373ffffffffffffffffffffffffffffffffffffffff1673ffffffffffffffffffffffffffffffffffffffff168152602001908152602001600020541415610778576040517f08c379a000000000000000000000000000000000000000000000000000000000815260040161076f9061216d565b60405180910390fd5b6000600260008373ffffffffffffffffffffffffffffffffffffffff1673ffffffffffffffffffffffffffffffffffffffff1681526020019081526020016000208054905090506000811415610803576040517f08c379a00000000000000000000000000000000000000000000000000000000081526004016107fa9061235e565b60405180910390fd5b60018060008473ffffffffffffffffffffffffffffffffffffffff1673ffffffffffffffffffffffffffffffffffffffff16815260200190815260200160002060008773ffffffffffffffffffffffffffffffffffffffff1673ffffffffffffffffffffffffffffffffffffffff16815260200190815260200160002060020160069054906101000a900460ff1660ff16146108d4576040517f08c379a00000000000000000000000000000000000000000000000000000000081526004016108cb906123f0565b60405180910390fd5b600115158415151415610bb3576002600160008473ffffffffffffffffffffffffffffffffffffffff1673ffffffffffffffffffffffffffffffffffffffff16815260200190815260200160002060008773ffffffffffffffffffffffffffffffffffffffff1673ffffffffffffffffffffffffffffffffffffffff16815260200190815260200160002060020160066101000a81548160ff021916908360ff1602179055506000808373ffffffffffffffffffffffffffffffffffffffff1673ffffffffffffffffffffffffffffffffffffffff16815260200190815260200160002060008673ffffffffffffffffffffffffffffffffffffffff1673ffffffffffffffffffffffffffffffffffffffff168152602001908152602001600020600160008473ffffffffffffffffffffffffffffffffffffffff1673ffffffffffffffffffffffffffffffffffffffff16815260200190815260200160002060008773ffffffffffffffffffffffffffffffffffffffff1673ffffffffffffffffffffffffffffffffffffffff1681526020019081526020016000209080600181540180825580915050600190039060005260206000209060030201600090919091909150600082015481600001556001820181600101908054610ab8906121bc565b610ac39291906117b2565b506002820160009054906101000a900460ff168160020160006101000a81548160ff021916908360ff1602179055506002820160019054906101000a900461ffff168160020160016101000a81548161ffff021916908361ffff1602179055506002820160039054906101000a900460ff168160020160036101000a81548160ff021916908360ff1602179055506002820160049054906101000a900461ffff168160020160046101000a81548161ffff021916908361ffff1602179055506002820160069054906101000a900460ff168160020160066101000a81548160ff021916908360ff16021790555050505b600160008373ffffffffffffffffffffffffffffffffffffffff1673ffffffffffffffffffffffffffffffffffffffff16815260200190815260200160002060008673ffffffffffffffffffffffffffffffffffffffff1673ffffffffffffffffffffffffffffffffffffffff168152602001908152602001600020600080820160009055600182016000610c48919061183f565b6002820160006101000a81549060ff02191690556002820160016101000a81549061ffff02191690556002820160036101000a81549060ff02191690556002820160046101000a81549061ffff02191690556002820160066101000a81549060ff0219169055505060005b81811015610f2d578573ffffffffffffffffffffffffffffffffffffffff16600260008573ffffffffffffffffffffffffffffffffffffffff1673ffffffffffffffffffffffffffffffffffffffff1681526020019081526020016000208281548110610d2357610d22612410565b5b9060005260206000200160009054906101000a900473ffffffffffffffffffffffffffffffffffffffff1673ffffffffffffffffffffffffffffffffffffffff161415610f1a57600260008473ffffffffffffffffffffffffffffffffffffffff1673ffffffffffffffffffffffffffffffffffffffff168152602001908152602001600020600183610db6919061246e565b81548110610dc757610dc6612410565b5b9060005260206000200160009054906101000a900473ffffffffffffffffffffffffffffffffffffffff16600260008573ffffffffffffffffffffffffffffffffffffffff1673ffffffffffffffffffffffffffffffffffffffff1681526020019081526020016000208281548110610e4357610e42612410565b5b9060005260206000200160006101000a81548173ffffffffffffffffffffffffffffffffffffffff021916908373ffffffffffffffffffffffffffffffffffffffff160217905550600260008473ffffffffffffffffffffffffffffffffffffffff1673ffffffffffffffffffffffffffffffffffffffff168152602001908152602001600020600183610ed7919061246e565b81548110610ee857610ee7612410565b5b9060005260206000200160006101000a81549073ffffffffffffffffffffffffffffffffffffffff0219169055610f2d565b8080610f25906124a2565b915050610cb3565b5060019250505092915050565b60008073ffffffffffffffffffffffffffffffffffffffff168473ffffffffffffffffffffffffffffffffffffffff161415610fab576040517f08c379a0000000000000000000000000000000000000000000000000000000008152600401610fa290612101565b60405180910390fd5b600073ffffffffffffffffffffffffffffffffffffffff168373ffffffffffffffffffffffffffffffffffffffff16141561101b576040517f08c379a00000000000000000000000000000000000000000000000000000000081526004016110129061255d565b60405180910390fd5b600360008573ffffffffffffffffffffffffffffffffffffffff1673ffffffffffffffffffffffffffffffffffffffff16815260200190815260200160002054821161109c576040517f08c379a0000000000000000000000000000000000000000000000000000000008152600401611093906125ef565b60405180910390fd5b60008060008673ffffffffffffffffffffffffffffffffffffffff1673ffffffffffffffffffffffffffffffffffffffff16815260200190815260200160002060008573ffffffffffffffffffffffffffffffffffffffff1673ffffffffffffffffffffffffffffffffffffffff168152602001908152602001600020805480602002602001604051908101604052809291908181526020016000905b8282101561129e57838290600052602060002090600302016040518060e001604052908160008201548152602001600182018054611176906121bc565b80601f01602080910402602001604051908101604052809291908181526020018280546111a2906121bc565b80156111ef5780601f106111c4576101008083540402835291602001916111ef565b820191906000526020600020905b8154815290600101906020018083116111d257829003601f168201915b505050505081526020016002820160009054906101000a900460ff1660ff1660ff1681526020016002820160019054906101000a900461ffff1661ffff1661ffff1681526020016002820160039054906101000a900460ff1660ff1660ff1681526020016002820160049054906101000a900461ffff1661ffff1661ffff1681526020016002820160069054906101000a900460ff1660ff1660ff168152505081526020019060010190611139565b5050505090506000805b82518110156112f357848382815181106112c5576112c4612410565b5b60200260200101516000015114156112e057600191506112f3565b80806112eb906124a2565b9150506112a8565b5080925050509392505050565b60608060003390506000600360008373ffffffffffffffffffffffffffffffffffffffff1673ffffffffffffffffffffffffffffffffffffffff16815260200190815260200160002054141561138b576040517f08c379a00000000000000000000000000000000000000000000000000000000081526004016113829061216d565b60405180910390fd5b6000600260008373ffffffffffffffffffffffffffffffffffffffff1673ffffffffffffffffffffffffffffffffffffffff16815260200190815260200160002080548060200260200160405190810160405280929190818152602001828054801561144c57602002820191906000526020600020905b8160009054906101000a900473ffffffffffffffffffffffffffffffffffffffff1673ffffffffffffffffffffffffffffffffffffffff1681526020019060010190808311611402575b505050505090506000815167ffffffffffffffff8111156114705761146f611972565b5b6040519080825280602002602001820160405280156114a957816020015b61149661187f565b81526020019060019003908161148e5790505b50905060005b825181101561171e57600160008573ffffffffffffffffffffffffffffffffffffffff1673ffffffffffffffffffffffffffffffffffffffff1681526020019081526020016000206000600260008773ffffffffffffffffffffffffffffffffffffffff1673ffffffffffffffffffffffffffffffffffffffff168152602001908152602001600020838154811061154a57611549612410565b5b9060005260206000200160009054906101000a900473ffffffffffffffffffffffffffffffffffffffff1673ffffffffffffffffffffffffffffffffffffffff1673ffffffffffffffffffffffffffffffffffffffff1681526020019081526020016000206040518060e0016040529081600082015481526020016001820180546115d4906121bc565b80601f0160208091040260200160405190810160405280929190818152602001828054611600906121bc565b801561164d5780601f106116225761010080835404028352916020019161164d565b820191906000526020600020905b81548152906001019060200180831161163057829003601f168201915b505050505081526020016002820160009054906101000a900460ff1660ff1660ff1681526020016002820160019054906101000a900461ffff1661ffff1661ffff1681526020016002820160039054906101000a900460ff1660ff1660ff1681526020016002820160049054906101000a900461ffff1661ffff1661ffff1681526020016002820160069054906101000a900460ff1660ff1660ff1681525050828281518110611700576116ff612410565b5b60200260200101819052508080611716906124a2565b9150506114af565b508181945094505050509091565b828054611738906121bc565b90600052602060002090601f01602090048101928261175a57600085556117a1565b82601f1061177357805160ff19168380011785556117a1565b828001600101855582156117a1579182015b828111156117a0578251825591602001919060010190611785565b5b5090506117ae91906118cd565b5090565b8280546117be906121bc565b90600052602060002090601f0160209004810192826117e0576000855561182e565b82601f106117f1578054855561182e565b8280016001018555821561182e57600052602060002091601f016020900482015b8281111561182d578254825591600101919060010190611812565b5b50905061183b91906118cd565b5090565b50805461184b906121bc565b6000825580601f1061185d575061187c565b601f01602090049060005260206000209081019061187b91906118cd565b5b50565b6040518060e001604052806000815260200160608152602001600060ff168152602001600061ffff168152602001600060ff168152602001600061ffff168152602001600060ff1681525090565b5b808211156118e65760008160009055506001016118ce565b5090565b6000604051905090565b600080fd5b600080fd5b600073ffffffffffffffffffffffffffffffffffffffff82169050919050565b6000611929826118fe565b9050919050565b6119398161191e565b811461194457600080fd5b50565b60008135905061195681611930565b92915050565b600080fd5b6000601f19601f8301169050919050565b7f4e487b7100000000000000000000000000000000000000000000000000000000600052604160045260246000fd5b6119aa82611961565b810181811067ffffffffffffffff821117156119c9576119c8611972565b5b80604052505050565b60006119dc6118ea565b90506119e882826119a1565b919050565b600080fd5b6000819050919050565b611a05816119f2565b8114611a1057600080fd5b50565b600081359050611a22816119fc565b92915050565b600080fd5b600080fd5b600067ffffffffffffffff821115611a4d57611a4c611972565b5b611a5682611961565b9050602081019050919050565b82818337600083830152505050565b6000611a85611a8084611a32565b6119d2565b905082815260208101848484011115611aa157611aa0611a2d565b5b611aac848285611a63565b509392505050565b600082601f830112611ac957611ac8611a28565b5b8135611ad9848260208601611a72565b91505092915050565b600060ff82169050919050565b611af881611ae2565b8114611b0357600080fd5b50565b600081359050611b1581611aef565b92915050565b600061ffff82169050919050565b611b3281611b1b565b8114611b3d57600080fd5b50565b600081359050611b4f81611b29565b92915050565b600060e08284031215611b6b57611b6a61195c565b5b611b7560e06119d2565b90506000611b8584828501611a13565b600083015250602082013567ffffffffffffffff811115611ba957611ba86119ed565b5b611bb584828501611ab4565b6020830152506040611bc984828501611b06565b6040830152506060611bdd84828501611b40565b6060830152506080611bf184828501611b06565b60808301525060a0611c0584828501611b40565b60a08301525060c0611c1984828501611b06565b60c08301525092915050565b60008060408385031215611c3c57611c3b6118f4565b5b6000611c4a85828601611947565b925050602083013567ffffffffffffffff811115611c6b57611c6a6118f9565b5b611c7785828601611b55565b9150509250929050565b60008115159050919050565b611c9681611c81565b82525050565b6000602082019050611cb16000830184611c8d565b92915050565b611cc081611c81565b8114611ccb57600080fd5b50565b600081359050611cdd81611cb7565b92915050565b60008060408385031215611cfa57611cf96118f4565b5b6000611d0885828601611947565b9250506020611d1985828601611cce565b9150509250929050565b600080600060608486031215611d3c57611d3b6118f4565b5b6000611d4a86828701611947565b9350506020611d5b86828701611947565b9250506040611d6c86828701611a13565b9150509250925092565b600081519050919050565b600082825260208201905092915050565b6000819050602082019050919050565b611dab8161191e565b82525050565b6000611dbd8383611da2565b60208301905092915050565b6000602082019050919050565b6000611de182611d76565b611deb8185611d81565b9350611df683611d92565b8060005b83811015611e27578151611e0e8882611db1565b9750611e1983611dc9565b925050600181019050611dfa565b5085935050505092915050565b600081519050919050565b600082825260208201905092915050565b6000819050602082019050919050565b611e69816119f2565b82525050565b600081519050919050565b600082825260208201905092915050565b60005b83811015611ea9578082015181840152602081019050611e8e565b83811115611eb8576000848401525b50505050565b6000611ec982611e6f565b611ed38185611e7a565b9350611ee3818560208601611e8b565b611eec81611961565b840191505092915050565b611f0081611ae2565b82525050565b611f0f81611b1b565b82525050565b600060e083016000830151611f2d6000860182611e60565b5060208301518482036020860152611f458282611ebe565b9150506040830151611f5a6040860182611ef7565b506060830151611f6d6060860182611f06565b506080830151611f806080860182611ef7565b5060a0830151611f9360a0860182611f06565b5060c0830151611fa660c0860182611ef7565b508091505092915050565b6000611fbd8383611f15565b905092915050565b6000602082019050919050565b6000611fdd82611e34565b611fe78185611e3f565b935083602082028501611ff985611e50565b8060005b8581101561203557848403895281516120168582611fb1565b945061202183611fc5565b925060208a01995050600181019050611ffd565b50829750879550505050505092915050565b600060408201905081810360008301526120618185611dd6565b905081810360208301526120758184611fd2565b90509392505050565b600082825260208201905092915050565b7f5342543a20636f6d70616e7920616464726573732063616e6e6f74206265207460008201527f6865207a65726f20616464726573730000000000000000000000000000000000602082015250565b60006120eb602f8361207e565b91506120f68261208f565b604082019050919050565b6000602082019050818103600083015261211a816120de565b9050919050565b7f5342543a20636f6d70616e79206e6f7420726567697374657264000000000000600082015250565b6000612157601a8361207e565b915061216282612121565b602082019050919050565b600060208201905081810360008301526121868161214a565b9050919050565b7f4e487b7100000000000000000000000000000000000000000000000000000000600052602260045260246000fd5b600060028204905060018216806121d457607f821691505b602082108114156121e8576121e761218d565b5b50919050565b7f5342543a207265717565737420697320616c726561647920696e2070656e646960008201527f6e67206c69737400000000000000000000000000000000000000000000000000602082015250565b600061224a60278361207e565b9150612255826121ee565b604082019050919050565b600060208201905081810360008301526122798161223d565b9050919050565b7f5342543a20636f6d70616e7920616c7265616479207265676973746572640000600082015250565b60006122b6601e8361207e565b91506122c182612280565b602082019050919050565b600060208201905081810360008301526122e5816122a9565b9050919050565b7f5342543a20636f6d70616e7920686173206e6f2070656e64696e67207265717560008201527f6573747300000000000000000000000000000000000000000000000000000000602082015250565b600061234860248361207e565b9150612353826122ec565b604082019050919050565b600060208201905081810360008301526123778161233b565b9050919050565b7f5342543a207573657220686173206e6f742072657175657374656420616e792060008201527f5342540000000000000000000000000000000000000000000000000000000000602082015250565b60006123da60238361207e565b91506123e58261237e565b604082019050919050565b60006020820190508181036000830152612409816123cd565b9050919050565b7f4e487b7100000000000000000000000000000000000000000000000000000000600052603260045260246000fd5b7f4e487b7100000000000000000000000000000000000000000000000000000000600052601160045260246000fd5b6000612479826119f2565b9150612484836119f2565b9250828210156124975761249661243f565b5b828203905092915050565b60006124ad826119f2565b91507fffffffffffffffffffffffffffffffffffffffffffffffffffffffffffffffff8214156124e0576124df61243f565b5b600182019050919050565b7f5342543a20697373756564546f20616464726573732063616e6e6f742062652060008201527f746865207a65726f206164647265737300000000000000000000000000000000602082015250565b600061254760308361207e565b9150612552826124eb565b604082019050919050565b600060208201905081810360008301526125768161253a565b9050919050565b7f5342543a2069642063616e6e6f742062652067726561746572207468616e207460008201527f686520746f74616c205342542069737375656420627920636f6d70616e790000602082015250565b60006125d9603e8361207e565b91506125e48261257d565b604082019050919050565b60006020820190508181036000830152612608816125cc565b905091905056fea264697066735822122073326088d6780ee340f0a6a3006f82b29d7aa7f9a3ee1bd3005db67d1ed699c564736f6c634300080a0033",
  "immutableReferences": {},
  "source": "// SPDX-License-Identifier: MIT\r\npragma solidity ^0.8.0;\r\n\r\ncontract SBT {\r\n\r\n    struct JobSBT {\r\n        uint id;\r\n        string title;\r\n        uint8 startMonth;\r\n        uint16 startYear;\r\n        uint8 endMonth;\r\n        uint16 endYear;\r\n        /** \r\n         * @dev Tracks the state of a SBT\r\n         * \r\n         * - 0 means address is not present in mapping.\r\n         * - 1 means address is present, but pending.\r\n         * - 2 means address is present & issued.\r\n         */\r\n        uint8 isSet;\r\n    }\r\n\r\n    mapping (address => mapping(address => JobSBT[])) private issuedSBT;\r\n\r\n    // Requested SBTs that are not yet accepted/rejected\r\n    mapping (address => mapping(address => JobSBT)) private pendingSBT;\r\n    mapping (address => address[]) private pendingSBTAddresses;\r\n\r\n    /** \r\n     * @dev Tracks the count of a company's issued SBT\r\n     * \r\n     * - 0 means company is not registered.\r\n     * - 1 means company is registerd.\r\n     * - n means company has issued n-1 SBT. \r\n    */\r\n    mapping (address => uint) countIssued;\r\n\r\n    /** \r\n     * @dev Registers the caller with the contract.\r\n     *\r\n     * Requirements:\r\n     *\r\n     * - the caller (company) must not be already registered.\r\n     */\r\n    function registerCompany() external returns (bool) {\r\n        require(countIssued[msg.sender] == 0, \"SBT: company already registerd\");\r\n        countIssued[msg.sender] = 1;\r\n        return true;\r\n    }\r\n   \r\n    /**\r\n     * @dev Requests a SBT from `company` for the caller's account.\r\n     *\r\n     * Returns a boolean value indicating whether the operation succeeded.\r\n     *\r\n     * Requirements:\r\n     *\r\n     * - `company` cannot be the zero address.\r\n     * - `company` must be present in mapping.\r\n     * - the caller must not have requested the same `company` before.\r\n     */\r\n    function requestSBT(address company, JobSBT memory jobSBT_) external returns (bool) {\r\n        require(company != address(0), \"SBT: company address cannot be the zero address\");\r\n        require(countIssued[company] != 0, \"SBT: company not registerd\");\r\n\r\n        JobSBT memory _jobSBT = pendingSBT[company][msg.sender];\r\n        require (_jobSBT.isSet == 1, \"SBT: request is already in pending list\");\r\n\r\n        pendingSBT[company][msg.sender] = jobSBT_;\r\n        pendingSBTAddresses[company].push(msg.sender);\r\n        return true;\r\n    }\r\n\r\n    /**\r\n     * @dev Returns all pending SBT requests for the caller.\r\n     *\r\n     * Requirements:\r\n     *\r\n     * - the caller must be present in mapping.\r\n     */\r\n    function getPendingSBTRequests() external view returns (address[] memory, JobSBT[] memory) {\r\n        address company = msg.sender;\r\n        require(countIssued[company] != 0, \"SBT: company not registerd\");\r\n\r\n        address[] memory returnAddresses = pendingSBTAddresses[company];\r\n        JobSBT[] memory returnPendingSBT = new JobSBT[](returnAddresses.length);\r\n\r\n        for (uint i = 0; i < returnAddresses.length; i++) {\r\n            returnPendingSBT[i] = pendingSBT[company][pendingSBTAddresses[company][i]];\r\n        }\r\n\r\n        return (returnAddresses, returnPendingSBT);\r\n    }\r\n\r\n    /**\r\n     * @dev Responds to a SBT request. \r\n     *\r\n     * Issues SBT if `reponse` is true, else rejects the request.\r\n     *\r\n     * Returns a boolean value indicating whether the operation succeeded.\r\n     *\r\n     * Requirements:\r\n     *\r\n     * - the caller `company` must be present (registerd) in mapping.\r\n     * - the caller `company` must have pending requests to respond to from `user`.\r\n     */\r\n    function respondToRequestSBT(address user, bool response) external returns (bool) {\r\n        \r\n        address company = msg.sender;\r\n        require(countIssued[company] != 0, \"SBT: company not registerd\");\r\n        \r\n        uint len = pendingSBTAddresses[company].length;\r\n        require(len != 0, \"SBT: company has no pending requests\");\r\n\r\n        require(pendingSBT[company][user].isSet == 1, \"SBT: user has not requested any SBT\");\r\n\r\n        if (response == true) {\r\n            pendingSBT[company][user].isSet = 2;\r\n            issuedSBT[company][user].push(pendingSBT[company][user]);\r\n        } \r\n\r\n        delete pendingSBT[company][user];\r\n        for (uint i = 0; i < len; i++) {\r\n            if (pendingSBTAddresses[company][i] == user) {\r\n                pendingSBTAddresses[company][i] = pendingSBTAddresses[company][len-1];\r\n                delete pendingSBTAddresses[company][len-1];\r\n                break;\r\n            }\r\n        }\r\n\r\n        return true;\r\n    }\r\n\r\n    /**\r\n     * @dev Returns a boolean value indicating whether `company` has issued a SBT with\r\n     * `id` to the `issuedTo` or not.\r\n     *\r\n     * Requirements:\r\n     *\r\n     * - `company` cannot be the zero address.\r\n     * - `issuedTo` cannot be the zero address.\r\n     * - `id` cannot be greater than the total SBT issued by the `company`\r\n     */\r\n    function verifySBT(address company, address issuedTo, uint id) external view returns (bool) {\r\n        require(company != address(0), \"SBT: company address cannot be the zero address\");\r\n        require(issuedTo != address(0), \"SBT: issuedTo address cannot be the zero address\");\r\n        require(id > countIssued[company], \"SBT: id cannot be greater than the total SBT issued by company\");\r\n\r\n        JobSBT[] memory jobSBT = issuedSBT[company][issuedTo];\r\n        bool flag = false;\r\n        for (uint i = 0; i < jobSBT.length; i++) {\r\n            if (jobSBT[i].id == id) {\r\n                flag = true;\r\n                break;\r\n            }\r\n        }\r\n        return flag;\r\n    }\r\n}",
  "sourcePath": "C:\\My Data\\Sem0\\Solidity\\Soulbound-Tokens\\contracts\\SBT.sol",
  "compiler": {
    "name": "solc",
    "version": "0.8.10+commit.fc410830.Emscripten.clang"
  },
  "schemaVersion": "3.4.3",
  "updatedAt": "2022-07-11T20:25:38.257Z",
  "networkType": "ethereum",
  "devdoc": {
    "kind": "dev",
    "methods": {
      "getPendingSBTRequests()": {
        "details": "Returns all pending SBT requests for the caller. Requirements: - the caller must be present in mapping."
      },
      "registerCompany()": {
        "details": "Registers the caller with the contract. Requirements: - the caller (company) must not be already registered."
      },
      "requestSBT(address,(uint256,string,uint8,uint16,uint8,uint16,uint8))": {
        "details": "Requests a SBT from `company` for the caller's account. Returns a boolean value indicating whether the operation succeeded. Requirements: - `company` cannot be the zero address. - `company` must be present in mapping. - the caller must not have requested the same `company` before."
      },
      "respondToRequestSBT(address,bool)": {
        "details": "Responds to a SBT request.  Issues SBT if `reponse` is true, else rejects the request. Returns a boolean value indicating whether the operation succeeded. Requirements: - the caller `company` must be present (registerd) in mapping. - the caller `company` must have pending requests to respond to from `user`."
      },
      "verifySBT(address,address,uint256)": {
        "details": "Returns a boolean value indicating whether `company` has issued a SBT with `id` to the `issuedTo` or not. Requirements: - `company` cannot be the zero address. - `issuedTo` cannot be the zero address. - `id` cannot be greater than the total SBT issued by the `company`"
      }
    },
    "stateVariables": {
      "countIssued": {
        "details": "Tracks the count of a company's issued SBT  - 0 means company is not registered. - 1 means company is registerd. - n means company has issued n-1 SBT. "
      }
    },
    "version": 1
  },
  "userdoc": {
    "kind": "user",
    "methods": {},
    "version": 1
  }
}